:020000040800F2
:10000000581C0020A1010008B9140008B51400080C
:10001000B71400088B1100087916000800000000D2
:10002000000000000000000000000000CD150008E6
:100030008D1100080000000041150008D1150008CE
:10004000BB010008BB010008BB010008BB010008A0
:10005000BB010008BB010008BB010008BB01000890
:10006000BB010008BB010008BB010008BB01000880
:10007000BB010008BB010008BB010008BB01000870
:10008000BB010008BB010008BB010008BB01000860
:10009000BB010008BB010008BB010008BB01000850
:1000A000BB010008BB010008BB010008BB01000840
:1000B000BB0100080000000000000000BB010008B8
:1000C000BB0100080000000000000000BB010008A8
:1000D00000000000BB010008BB0100080000000098
:1000E000BB010008BB010008000000000000000088
:1000F0000000000000000000000000000000000000
:10010000000000000000000000000000BB0100082B
:100110000000000000000000BB010008BB01000857
:10012000BB010008BB010008BB010008BB010008BF
:10013000BB010008000000000000000000000000FB
:10014000BB010008BB010008BB010008BB0100089F
:10015000BB010008BB010008BB010008BB0100088F
:10016000BB010008BB010008BB0100080000000043
:10017000BB010008BB0100080000000000000000F7
:10018000BB010008BB010008BB010008DFF80CD070
:1001900000F026FD00480047591A0008581C0020AE
:1001A0000648804706480047FEE7FEE7FEE7FEE711
:1001B000FEE7FEE7FEE7FEE7FEE7FEE7DD150008E7
:1001C0008D0100082DE9FE439946154688460746ED
:1001D00001AC022942D3002D40D000200290A8F1AA
:1001E00001004FF0FF36009022E000FB057201FB9A
:1001F000057011464A469047002805DC54F8260051
:10020000304444F8260013E060682A4600FB05717C
:1002100054F8040C00FB057007E00B7890F800C060
:1002200001F801CB00F8013B521E002AF5D17642BD
:1002300054F8040C61688842D7DC4B462A4638469D
:10024000FFF7C0FF54F8040C4B46A8EB0001401C1C
:1002500000FB05702A46491EFFF7B4FF00F000B806
:1002600006BCBDE8F88300000FB400B589B00BA848
:1002700000906A4603480A9900F0BCFA09B05DF89C
:1002800014FB0000000000202DE9FF5F1D464FF029
:10029000FF3BD5E9014691465F464FF00008A9694A
:1002A0007F1C01988847296A824688470028F6D132
:1002B000BAF1FF3F0CD024F4C064002E19DD6006B3
:1002C00014D5BAF12B0F09D0BAF12D0F0ED103E0DE
:1002D000584604B000F07EB844F48064A9697F1CDD
:1002E00001988847761E8246002E02DDBAF1300F53
:1002F00003D0B9F1000F26D032E0A969761E44F48C
:1003000000747F1C019888478246002E05DDBAF1F3
:10031000780F06D0BAF1580F03D0B9F1000F10D002
:100320001EE0B9F1000F02D0B9F1100F18D1A96980
:10033000761E24F400747F1C0198884782461020A2
:1003400002E0082000E00A20814609E008FB0908D5
:10035000A969761E44F400747F1C01988847824680
:10036000002E05DD4946504600F035FA0028EDDA4A
:10037000E96901988847A00502D46FF00100A8E759
:10038000E00725D1600613D5600502D5C8F100004D
:1003900000E0404629680A1D2A600968220501D547
:1003A000087015E0220701D5088011E008600FE011
:1003B0002868011D29600068210502D580F80080A9
:1003C00006E0210702D5A0F8008001E0C0F8008017
:1003D00038467EE730BCBDE8C09F00002DE9FF4FE6
:1003E000087883B09946FF2805D0491C2D2804D0F1
:1003F0000024002008E000200BE00124F9E700EBD6
:10040000800003EB4000491C0B78FF2BF7D104B1AF
:10041000404200230293147819461D462D2C01D02A
:100420002B2C04D1521C2D2C13D000240294AA464C
:100430001478FF2C0FD00A25A3FB057801FB05815A
:100440004FF0000C03FB0C11521CE3194AEB0101A5
:10045000EEE70124EAE7814453EA010002D019F5EE
:10046000C87F06DA03980021C0E9001107B000F048
:1004700065B90025AE4E2F46DFF8B882184600F069
:1004800056FBCDE90001B9F1000002DAC9F1000420
:1004900000E004460023A74A1AEB030B42EB045A80
:1004A00012E0E00707D02A4633463846414600F0BE
:1004B0005AFA074688462A4633461046194600F03F
:1004C00052FA05460E466410002CEAD1DDE900011F
:1004D000B9F1000F5A46534606DA00F0B9FA3A4627
:1004E000434600F0B5FA05E000F03DFA3A464346CF
:1004F00000F039FA029A0AB181F00041039AC2E988
:100500000001B3E72DE9FF4F1F468DB0D7E9014643
:100510004FF0FF382E2045464FF000090B90B96987
:100520006D1C0E988847396A824688470028F6D1A4
:10053000BAF1FF3F0AD024F4D064002E11DDBAF1E5
:100540002B0F08D0BAF12D0F0BD102E0404611B0AD
:100550008DE744F48064B9696D1C0E988847824623
:10056000761E6946600501D52D2000E02B208DF810
:10057000000001F1010B0DF1200809E0B9696D1CC3
:100580000E98884782460F9844F40074761E0560E2
:10059000002E02DDBAF1300FF0D00B998A453ED122
:1005A00044F0800406E00F99681CA9F1010944F4A5
:1005B00000740860B9696D1C761E0E9888478246E3
:1005C0003028F0D02BE00B998A4505D1200603D4C2
:1005D00044F08004761E18E0504601F07EFF08B318
:1005E0000DF11302761EAAF1300044F40074934515
:1005F00006D20BF8010B200607D5A9F1010003E094
:10060000200602D409F101008146A00502D50F9908
:10061000681C0860B9696D1C0E9888478246002ED8
:10062000D1DC53E0002E51DDBAF1650F02D0BAF1F2
:10063000450F4BD1A00549D5B9696D1C24F4407410
:10064000761E0E9888478246002E0CDD2B2804D09B
:10065000BAF12D0F07D144F48074B9696D1C0E985E
:1006600088478246761EE00501D52D2100E02B212A
:1006700008F8011BCDF82C8021E00DF12901761E30
:1006800044F4007488450CD2AAF1300010F0FF0049
:1006900088F8000002D10B99884509D908F10108B2
:1006A00006E0E00501D5244801E042F20F708146E2
:1006B000B9696D1C0E98884782460F980560002E18
:1006C00004DD504601F009FF0028D6D1F9690E98E3
:1006D0008847FF208BF8000088F800000020069073
:1006E00007904B466A4608A906A8FFF777FEA005C3
:1006F00002D46FF001002AE714F0240F0AD0E007BB
:1007000014D1DDE906123868031D3B600068C0E9BA
:1007100000120BE0DDE9060100F046FA0146E007B1
:1007200004D13868021D3A600068016028460EE76F
:10073000000014400000F03FF1D8FFFF30BCBDE8DE
:10074000C08F30B50B46014600202022012409E06D
:1007500021FA02F59D4205D303FA02F5491B04FA7A
:1007600002F52844151EA2F10102F1DC30BD2DE98D
:10077000F05F0546002092469B4688460646814625
:1007800040241BE0284641464746224600F05FFAD7
:1007900053465A46C01A914110D311461846224674
:1007A00000F046FA2D1A67EB01084F462246012059
:1007B000002100F03DFA17EB00094E41201EA4F184
:1007C0000104DFDC484631462A46434600F000B8C3
:1007D00030BCBDE8C09F3A2800D2303820F020025B
:1007E000412A01D3A2F13700884201D34FF0FF30F4
:1007F00070470000024B9361024BD36100F050BA86
:10080000D1180008210C00082DE9FE4F804681EA2E
:100810000300C00F0C46009021F0004123F000457A
:10082000B8EB0200A94105D24046214690461C463D
:100830000B46024623F00040104347D0270DC7F374
:100840000A00C3F30A510290401A019040286BDA63
:10085000C3F3130040F4801B0098924620B100239C
:10086000D2EB030A63EB0B0B01985946C0F140022F
:10087000504600F0DDF906460D4650465946019AAD
:1008800000F0F5F910EB08006141002487EA1152ED
:1008900084EAE7731A4340D0009A62B3019A012AAE
:1008A0004FEA075215DC001B61EB02014FF00042DA
:1008B00002EA0752CDE90042001C41F580113246A0
:1008C0002B4600F041FA03B000F045B840462146FF
:1008D000F9E7001B61EB0201001C41F580130018D1
:1008E0005B412018A2F5001747EB030140EAD570E1
:1008F000B6196D4111E06D084FEA360645EAC0753C
:100900004FEA0752001B61EB0201001C41F5801108
:1009100049084FEA30000019514132462B4603B0D6
:1009200000F01CB800F001BA00980122400000233A
:10093000D0EB020263EBE073009821464FEAE074CB
:10094000B8EB000061EB0401E9E783F000435BE7EB
:1009500081F0004158E730BCBDE8C08F30BCBDE835
:10096000C04FFFF7DFBF2DE9FE4F81EA030404F01B
:10097000004421F0004100944FF0000B23F00043AD
:1009800050EA01045ED052EA03045BD0C3F30A5478
:10099000C1F30A552C44A4F2F3340194A0FB025491
:1009A000C1F3130141F48011C3F3130343F4801323
:1009B00001FB024400FB034E840A970A44EA815477
:1009C00047EA8357A4FB076802958D0A05FB078554
:1009D0004FEA932C04FB0C542705029D4FEA06585E
:1009E00047EA1637B5EB08056EEB070C870E920E3B
:1009F00047EA811742EA8312A7FB0201B6EB0B011B
:100A000064EB00042B0D43EA0C335E1844EB1C50DE
:100A1000DA465146E7FB0201C5F313044FEA0B33F4
:100A200043EA14534FEA0432019C43EA0603A4F15B
:100A30000C040294009CCDE900B400F085F903B0E9
:100A400000F003B800200146F9E730BCBDE8C08FD4
:100A50002DE9F04D81EA030404F0004B21F000453C
:100A600014464FF0000A23F0004150EA050220D05E
:100A700054EA01021DD0C5F30A570246C5F3130319
:100A8000C1F31300C1F30A5640F4801543F48013F8
:100A9000A7EB0608101BD64608F2FD3873EB0500DD
:100AA00002D308F1010801E092185B41B8F1000F90
:100AB00003DA00200146BDE8F08D00204FF48011DC
:100AC000064684460EE0171B73EB050705D3121B81
:100AD00063EB050306434CEA010C49084FEA30007A
:100AE00092185B4150EA0107EDD152EA030012D09F
:100AF00082EA040083EA0501084305D0101BAB41DC
:100B000006D20122002306E000224FF0004302E05B
:100B10006FF0010253101AEB06004CEB085110EB7A
:100B20000A0041EB0B01BDE8F04D00F0FEB80EB538
:100B300040F2334202920022CDE90022134600F037
:100B400003F903B000BDC1F30A52C1F3130140F22F
:100B5000FF3341F480119A4202DA002001467047C7
:100B600040F233439A42A2F2334202DC524200F096
:100B70006EB800F05DB8000030B5041E71F10004DD
:100B800004DB4FF00044404264EB0101141E73F19A
:100B9000000405DB1C464FF00043524263EB0403A4
:100BA000994208BF904230BD01F0004330B421F0BB
:100BB000004150EA010206D00A0DA2F56072C1F3AD
:100BC0001301002A02DC30BC00207047440F44EAC5
:100BD000C104C100E01830BC00EBC25000F06EB898
:100BE000064C074D06E0E06840F0010394E807007A
:100BF00098471034AC42F6D3FFF7CCFA842C0008A7
:100C0000A42C0008094910B508784C1C18B1401EE6
:100C10000870205C10BD00210720ABBE207010BD05
:100C200002490878421C0A70704700000C0000203E
:100C3000202A04DB203A00FA02F10020704791409C
:100C4000C2F1200320FA03F3194390407047202A91
:100C500004DB203A21FA02F00021704721FA02F366
:100C6000D040C2F120029140084319467047202A23
:100C700006DBCB17203A41FA02F043EAE07306E0C4
:100C800041FA02F3D040C2F12002914008431946D4
:100C900070470000026811441378016018467047DD
:100CA000D16004495161044911620021116111466A
:100CB00000F09EB8950C0008E50D00080029A8BFBB
:100CC0007047401C490008BF20F00100704710B475
:100CD000B0FA80FC00FA0CF050EA010404BF10BC2A
:100CE000704749B1CCF1200421FA04F411FA0CF157
:100CF00018BF012121430843A3EB0C01CB1D4FEA90
:100D000000614FEA102042BF002010BC704700EB8A
:100D1000C35010440029A4BF10BC7047401C4900B8
:100D200008BF20F0010010BC704710B5141E73F10D
:100D3000000408DA401C41F1000192185B411A439B
:100D400001D120F0010010BD2DE9F04D92469B46E7
:100D500011B1B1FA81F202E0B0FA80F2203290468D
:100D6000FFF766FF04460F4640EA0A0041EA0B011E
:100D700053465A46084313D0114653EA010019D08E
:100D8000C8F140025046FFF762FF05460E46504646
:100D900059464246FFF74CFF084305D0012004E0C6
:100DA00020463946BDE8F08D0020054346EAE0764E
:100DB0002C4337430A986305E40AA0EB080000229D
:100DC000FD0A44EA47540A3002D500200146E9E70B
:100DD000010510196941DDE9084500196941BDE8BF
:100DE000F04DA2E7C0B24FF4F05100F09BB9000003
:100DF0002DE9F34F8BB04FF0000801F10C000C46C9
:100E00004FF0010B46460DF1080A0190626901217D
:100E100001989047051E2DD0252D2CD0216A88479A
:100E2000C0B16269012101989047216A8847002872
:100E3000F7D1411E62690198904700E0761CA169D4
:100E40000B988847216A88470028F7D1E1690B98F9
:100E50008847DBE7A1690B9888470746A84201D17C
:100E6000761CD3E7E1690B9888477F1C02D1B8F163
:100E7000000F6FD046E1002762693D463946019870
:100E800090472A2804D162690121019890470125E1
:100E9000DFF884926269012101989047A0F1300146
:100EA0000A290AD24F45E5DC07EB870100EB410731
:100EB000303FDFD445F01005ECE7E90601D46FF0D0
:100EC00000476C280AD04C2814D0682815D06A280E
:100ED0000DD074281CD07A281AD01DE06269012137
:100EE000019890476C2802D045F0040514E045F0C5
:100EF00002050DE045F020050AE062690121019834
:100F00009047682802D045F0080505E045F40065E3
:100F10006269012101989047C4E9015765283DD0D5
:100F200019DC58287AD00CDC452837D004DC252879
:100F300026D0412831D131E046282FD047282CD166
:100F40002CE05B2877D0612828D063287CD06428E7
:100F500023D15AE0D0E06F2848D008DC66281DD0A5
:100F600067281BD0692821D06E2816D127E0702869
:100F700045D0732868D0752847D078280DD14DE02A
:100F8000A1690B988847054625283FF469AFE169B8
:100F90000B9888476D1C3FF46AAFB3E023466A465E
:100FA0006FF001000B99FFF7ADFA9EE045F04000AD
:100FB0006060A80723464FF0000236D43EE0E80701
:100FC0007FF447AF2068011D21600068290501D525
:100FD00006701BE7290701D5068017E7A90703D587
:100FE000F117C0E9006111E706600FE745F0400026
:100FF0006060A80723464FF0080216D41EE040F6B2
:101000000E0125EA0100606016E045F040006060D6
:10101000A80723464FF00A0207D40FE045F040002E
:101020006060A80708D5234610226FF001000B99D5
:10103000AFF3008059E007E0234610226FF0010073
:101040000B99FFF721F950E04FF000094F464B464E
:10105000632802D05B2806D040E0E80601D40120D6
:10106000A06001273AE062690121019890475E285B
:1010700005D14FF0010962694946019890472169FD
:1010800039B900210A46534643F82120491C082952
:10109000FADBB0B3216969B9C11700EBD162531112
:1010A0000AEB830122F01F02821A01200B68904094
:1010B00003430B6062690121019890475D28E8D1E4
:1010C000B9F1000F09D00020514651F82020D24339
:1010D00041F82020401C0828F7DB02AB224600978D
:1010E0006FF001000B99AFF3008000280CDA401C70
:1010F00008D1BBF1000F05D04FF0FF300DB000F06C
:101100000DB8FFE74046F9E7E90701D108F101080A
:1011100006444FF0000B79E6CCCCCC0C30BCBDE8DB
:10112000C08F00007F2801D9002208E0064A02EBA8
:101130005002C007127800D1120902F00F020120FC
:1011400090400840704700001C2C000840EA010352
:101150009B0703D009E008C9121F08C0042AFAD26D
:1011600003E011F8013B00F8013B521EF9D2704731
:101170000EB540F2334102910021CDE900110A463B
:101180000B46FFF7E1FD03B000BDFEE77047EFF34C
:10119000108072B6FEE70000034901300A680B6850
:1011A0009B1A8342FBD37047241400202DE9FC4F87
:1011B0005F4A07234FF000084FF0010A4FF00F0E6F
:1011C0004FF0000B904208BF0223009300250B68EC
:1011D00033FA05F208BF00F0B5B80AFA05F213EACF
:1011E000020900F09F804E6806F00304631E012B85
:1011F0001DD80323D0F808C0D1F80CE003FA08F397
:101200000EFA08F72CEA030C4FF00F0E47EA0C0712
:101210008760C6F3001707FA05FC476827EA020251
:1012200042EA0C026FEA030C6B0042600AE0032200
:10123000434602FA08F2032C6FEA020C02D143463D
:1012400003241CE0C7688A6807EA0C079A403A43FF
:10125000022CC26013D16FF003060BF01C0206EAE9
:1012600055060EFA02F40644376A27EA04040F69A9
:1012700007FA02F2224332624E6806F0030404FACF
:1012800003F2036803EA0C031A4316F4403F0260BA
:1012900048D02A4B1A6842F001021A601A68254B9E
:1012A00002F00102A3F57E730192019AAA0853F895
:1012B00022C0B0F1904F05D0214C009EA04208BF43
:1012C000012600E000260BF00C070EFA07F4BE40E2
:1012D000184F2CEA0404344343F82240BA684C689F
:1012E00042EA0903E60258BF22EA0903124ABB6038
:1012F000A6029446126842EA090358BF22EA09038B
:10130000CCF80030A6037A6842EA090358BF22EA03
:1013100009037B60E4033A6842EA090358BF22EA02
:1013200009033B6008F102080BF1040B01354EE79D
:1013300000080048000401400C0401406010024015
:10134000000400481CBCBDE8E08F000070B5234AD3
:101350004FF47A735168B1FBF3F14B1E0021B1EBEE
:10136000136F09D1114CF0256360114BDD75A1603D
:1013700007210F28216001D9012115E019684FF0DC
:10138000FF36C1F302240021E51E84F0070438BFB4
:101390000D46042C28BF042406FA04F420EA0404B1
:1013A000AC402401DC751060084670BD10E000E020
:1013B0000CED00E009480A490A4A40680968C1F38F
:1013C000022100F0B1B800BF04480549054A406851
:1013D0000968C1F3C22100F0A7B800BF10000020C7
:1013E000081002407C2C000810B523498A68C868A0
:1013F00012F00C0205D00C2A1FD100F003000128C6
:101400001BD108681FA3000747BF08680009D1F86F
:101410009400000A002A00F00F0053F8203018460C
:1014200018BF00200C2A21D1C86800F00300022850
:1014300009D0032808BF124B06E0042A17D0082A57
:1014400017D10F4810BD0D4BC868CA68C96802247F
:10145000C2F30622C0F30210C1F341615A430130C6
:1014600004EB4101B2FBF0F0B0FBF1F010BD03481A
:1014700010BD00200023D5E7001002400024F40036
:1014800000127A00A0860100400D0300801A0600B9
:1014900000350C0040420F0080841E0000093D0012
:1014A00000127A000024F40000366E010048E801C2
:1014B000006CDC02FEE7FEE7FEE72868062140F04C
:1014C00008002860286861F307102860686820F425
:1014D0007F406860704754E8000F196820F4D070AE
:1014E00041E80002002A704710ED011A30EE010AAF
:1014F000B6EE001A20EE010A7047E86C40F00100D9
:10150000E864E86C00F00100029070474FF6FF724B
:1015100000F06CB821466FF07E4200F067B8584684
:1015200049460422FEF74EBE515C01F01F01C8403F
:101530007047C1F30311515C01F01F01C8407047AF
:101540007047000081B01E490A68D2001D4A0ED4BF
:101550000B6843F080530B600B6803F080530093DB
:10156000009B12680B6823F080530B6000E0126848
:1015700002F4C061B1F5007F06D1812808D30121B2
:10158000A02888BF02210DE0802803D9032109E0AB
:10159000002107E0A0F17001B1FA81F1490980282A
:1015A00008BF02210848026822F007020A440260CC
:1015B000006800F00700401A18BF012001B0704712
:1015C00058100240007000400020024070470000A8
:1015D000ED48016801310160704700BF02480168B1
:1015E00041F470010160704788ED00E070B5E54B93
:1015F000E54D1C68E6690640864204BF002070BDC8
:101600002E68761A96420ED826687607F2D5E669D5
:101610003605EFD54FF400602062FFF75CFF14D071
:101620001C68FAE71C68FFF756FFFBD1184650F814
:101630007C1B51E8022F194651F8784B22F0010229
:1016400044E80225002DF1D10FE0186850E8020FA0
:10165000196820F0010041E80202002AF5D120209B
:1016600003F17C01986703F1800020220A600021C9
:1016700059670260032070BDFEE700002DE9F84FB6
:1016800004AF2DED028BC4B004468846043040F20E
:10169000E1416E4694ED001A21EE010A39B1B0EC39
:1016A000012A013902EE020A31EE021AF6E79FED35
:1016B0007E8A81EE082A80EE081A02EE421AB1EE06
:1016C000C10AB4EE400AF1EE10FA80F1E880B0EE03
:1016D000041A0122002140F2E24E06F10C0C002017
:1016E000002320EE010A73451AD062B194ED001A6E
:1016F000B4EE401AF1EE10FA05DD4CF8213001315C
:101700000022012009E013284FF00005C8BF012581
:101710000AB1012201E001302A4604340133E2E734
:10172000022905DC00204FF07E51C8E90010ADE031
:10173000A1F101090720C6F804D000EB890020F0D0
:101740000700ADEB0004A5460CF104004946224613
:1017500059B150F8043C20C80139EB1A00EE103A98
:10176000B8EEC00AA2EC010AF2E70720C6F808802A
:1017700000EB890020F00700ADEB0005AD46ADEBB6
:10178000000BDD464FEA890A584621465246FFF7CC
:10179000DDFC464BFFF7C3FE022099FBF0F819F081
:1017A000010131600BEB880090ED000A01D1FFF7D9
:1017B0009BFE002029462246484509DAB2EC011A70
:1017C000013031EE401AB0EEC11AA1EC011AF3E774
:1017D000072000EB890020F00700ADEB000BDD4691
:1017E000584629465246FFF7B1FC304BFFF797FEAB
:1017F0000BEB8800316890ED000A09B9FFF774FE21
:10180000B2689FED2B1A0020B0EE002A0021494556
:1018100016DAB5EE400AF1EE10FA08D095ED003A6E
:1018200083EE003AB4EE423AF1EE10FA04DA94EDA7
:10183000003A013031EE031A043404350131E6E791
:10184000012804D19FED1A1AB7EE000A18E000EE45
:10185000100A9FED173AB2EE022AB8EEC00A81EEE6
:10186000000A88EE001AB7EE000AB4EE421AB0EE93
:10187000431AF1EE10FAC4BFB0EE401AB0EE430ABC
:1018800082ED000A82ED011AD6F804D0A7F11804FF
:101890000020A546BDEC028B01B000F00BB8B0EE05
:1018A000410A00F023FD12E700409C44BB180008E9
:1018B0000000000030BCBDE8C08F91ED000A90ED43
:1018C000001A31EE400ABDEEC00A10EE100A704751
:1018D0002DE9FC414F4DE86F20284ED1686F01285B
:1018E0004BD000202221C5F88000E967286601203E
:1018F0005749A5F85800D1F80080A5F85A00A86803
:1019000078B1B0F1805F10D0B0F5805F11D1286957
:1019100048B940F2FF1600270DF10704A5F85C60F6
:101920000FE0286938B9FF2606E0286918B13F267C
:1019300002E0002600E07F26A5F85C600DF10707B5
:10194000002400206867B5F85A00A0B12020414665
:10195000FFF7DCFD88B92868808C304017B107F8A4
:10196000010B02E024F8020B0027B5F85A000138F9
:10197000A5F85A00E7E72020E8679DF80700BDE8D2
:10198000FC8100BFA013002024140020F8B5214DD5
:101990000090A86F20283BD1686F012838D000261E
:1019A00021202B49C5F88060A86701206E67A5F843
:1019B00050000C68A5F85200A868296980F480508E
:1019C00050EA010768460CBF06460746B5F85200C4
:1019D000B8B180202146FFF799FDC8B927B117F8A3
:1019E000010B2968088506E036F8021B28680027E5
:1019F0006FF35F210185B5F852000138A5F8520058
:101A0000E4E740202146FFF781FD08B92020A867C0
:101A10000098F8BDA013002018B50C4A0C4B1068B4
:101A200018685168946801310C1B00941468E40331
:101A300003D5186892688A1A0092009B4FF47A7254
:101A40005343B3FBF1F100FB021018BD10E000E0BE
:101A5000241400200000000088B000204FF6FF0290
:101A60000190D34801681140D24A1143016000201F
:101A7000FFF76CFCD04D88B9286E40F00100286655
:101A8000286E00F0010003900398A86D40F080508C
:101A9000A865A86D00F0805003900398A968E868D5
:101AA00011F00C0405D00C2C38D100F003000128F3
:101AB00034D12868286800075ABFD5F89400000977
:101AC000286800F0E0005F2809D86020FFF73AFDA1
:101AD00000286BD17246FFF7F0FC96460EE02868AE
:101AE0000621002C40F008002860286861F30710E8
:101AF0002860686820F47F40686052D0FFF774FC6B
:101B0000A968DFF87027FFF714FDDFF86C1748604D
:101B10000868FFF71BFC002848D112E0286840F055
:101B200001002860DFF8480701682A68920704D49A
:101B30000268521A022AF8D938E07246FFF7BDFC53
:101B40009646E8689D4908409D49884215D1286815
:101B5000800145D4286840F080702860E86840F033
:101B60008070E860DFF8080701682A68920137D4BE
:101B70000268521A032AF8D318E00C2C16D02868F1
:101B8000400113D4286820F080702860DFF8E00658
:101B900002682B689B010DD503689B1A022BF8D9AC
:101BA00004E06020FFF7CEFC0028A7D0EFF3108000
:101BB00072B6FEE7EA68834B1A401143E960296870
:101BC00041F080712960E96841F08071E960016845
:101BD0002A68920104D40268521A022AF8D9E5E769
:101BE000794C2068400709D42068042161F3020081
:101BF0002060206800F00700042843D1A868286806
:101C000080013FD5A868DFF8687641F2883140F05E
:101C10000300A8603868AA6802F00C020C2A04D0FD
:101C20003A68121A8A42F6D92CE0A86810F0F00F30
:101C300003D0A86820F0F000A860206800F007003A
:101C4000052809D32068042161F302002060206880
:101C500000F00700042815D1A86820F4E060A8600F
:101C6000A86820F46050A860FFF7BEFBA968DFF801
:101C70000426DFF80466FFF75CFC70603068FFF74D
:101C800065FB18B1EFF3108072B6FEE7D5F8880057
:101C90004E4A20F00C00C5F88800106800F4C060BF
:101CA000B0F5007F19D01068012161F34A2032217C
:101CB00010607068164648434549B0FBF1F00021BA
:101CC00001307369013841F100025B0501D5002A3A
:101CD000F7D17069400500F1E880002608214FF037
:101CE00001080796E86C40F00400E864E86C00F036
:101CF000040002900298FFF700FC0298E86C40F0A4
:101D00000200E864E86C00F002000290029831489A
:101D10008162CDE90566CDE9031803A9FFF746FA0C
:101D200004F58050C7F83080C7E908663E82F86045
:101D3000F86A48B9BE62A86C40F48050A864A86CE8
:101D400000F4805003900398234824494FF002097F
:101D50000C22C7F82C90C160016821F018010160C5
:101D60004FF0FF318160016821F06001016001687E
:101D700021F080010160C7F82C80DFF80085184948
:101D80004FF4E130C8E90010C8E90266C8E904620E
:101D9000C8E90666C8E90866D8F8780010B34FF0BD
:101DA000000E4FF0000C002000248A464DE000BFDA
:101DB0000CED00E00003FA0500100240737F60FEA6
:101DC000012800388C809D010020024000700040F6
:101DD00040420F000004004808300240B71DC10413
:101DE000004400404FF0000B03268A46C8F874B048
:101DF000A86D40F40030A865A86D00F40030039091
:101E00000398FFF77AFB07200696CDE9049B07901D
:101E100004200390029803AC4FF090402146FFF756
:101E2000C5F94FF400402146CDE90666CDE9049B93
:101E300003904FF09040FFF7B9F908F1100CD8E982
:101E4000024ED8F800109CE8451024232043C8F81F
:101E5000783010430B6840EA0C0023F001030B605C
:101E60005B4B0A681A4010435A4A0860486802F5FA
:101E70008052914220F4405040EA0E004860D8F869
:101E8000200018BF0643886820F430603043886023
:101E900051450ED0504881420FD05048814216D152
:101EA000D5F888000FF2DC330CE0EFF3108072B647
:101EB000FEE7D5F88800800802E0D5F88800800A9F
:101EC000DFF8BC3300F0030053F8203000E01023AB
:101ED000914214D0BCF5004F23D1082B00F2BC81F5
:101EE0003F48DFE813F0090050005900B9015300E2
:101EF000B901B901B9015700FFF75CFA48E0082BB6
:101F000000F2AA813648DFE813F00900A701240097
:101F1000A7011E00A701A701A7012200FFF74AFAA7
:101F200013E0082B00F29881DA48DFE813F009008B
:101F30004A005D0095014D009501950195015B00FA
:101F4000FFF738FA42E0FFF74FFA10B95CE04FF4C0
:101F50000040D8F8042002EB42018842C0F07C81A6
:101F6000B0EB023F00F27881010E000210EB52004C
:101F700041F100010023FEF7FAFBC74AA0F54071CA
:101F800091423ED368E1FFF71FFA01E0FFF72CFA18
:101F900010B939E04FF40040D8F804104A0802EBB9
:101FA00040004FF6EF72B0FBF1F0A0F1100191424A
:101FB00000F252814FF6F0710140C0F34200084434
:101FC0001FE0FFF701FA01E0FFF70EFA60B91BE02E
:101FD000F369FFEF007000400080004000380140CE
:101FE0000024F4004FF40040D8F804104FF6EF72CC
:101FF00000EB5100B0FBF1F0A0F11001914200F2B2
:102000002B81D8F80010C860D8F824100020C8E947
:102010001900002961D0CA0708D0D8F80020D8F8E4
:102020002830546824F40034234353608A0708D5C9
:10203000D8F80020D8F82C30546824F48034234396
:1020400053604A0708D5D8F80020D8F830305468D3
:1020500024F48024234353600A0708D5D8F80020CD
:10206000D8F83430546824F4004423435360CA063B
:1020700008D5D8F80020D8F83830946824F4805473
:10208000234393608A0608D5D8F80020D8F83C305E
:10209000946824F40054234393604A0612D5D8F878
:1020A0000020D8F84030546824F480141C43B3F561
:1020B000801F546006D1D8F84430546824F4C0041A
:1020C00023435360090608D5D8F80010D8F84820F3
:1020D0004B6823F400231A434A60D8F800104A687A
:1020E00022F490424A608A6822F02A028A600A68D2
:1020F00042F001020A60C8F880003C6808680007E6
:1021000008D54FF40010FFF705FA002840F0A7802B
:10211000D8F800100868400706D54FF48000FFF794
:10212000F9F9002840F09B8020204FF0804141F2D7
:10213000883A09229FED4C8B5DA4C8F87800C8F856
:102140007C000020C8F87400C8F86000A86D40F05A
:102150000100A865A86D554D00F00100AB46039045
:102160000398086820F45C7008604C48C0F828A008
:102170004262026942F0010202610A6842F0800292
:102180000A60474A416811404160016821F07001CE
:102190000160416821F080014160381D009003AF6B
:1021A00040A000F093F84FF00008A946B8F1010FE5
:1021B00010D040F2E2454E463DB120463946FEF78A
:1021C00053F80398013D01C6F6E7D14408F1010830
:1021D0005D46EBE70120FEF7DFFFFFF71DFC0099EE
:1021E00080462846FFF74AFAFFF716FC814631A0E1
:1021F00000F06CF80120FEF7CFFF2FA001A9FEF739
:1022000033F80198C828CBD14846FEF7B1FF054600
:1022100040460E46FEF7ACFF02460B4628463146C6
:102220005D46FEF792FB53EC182BFEF711FC0246BD
:102230000F4822A390ED010A90ED021A21A0B4EEFE
:10224000410AF1EE10FAC8BF18460B4600F03EF8FE
:102250001E20FEF7A1FFA3E70020C8E91900FEF742
:1022600096FF00BF00BF00BF0000000080842E4129
:10227000241400206C2C000810000020A013002063
:102280005C2C0008010000000400000002000000B7
:10229000080000000024F40000FD0F0004000040CE
:1022A000F8BFFEFF626567696E000000180000203D
:1022B000256600006F6B000025640000302C252E81
:1022C00036660000312C252E366600000FB4054B13
:1022D00010B503A9044A029800F006F910BC5DF895
:1022E00014FB00008D1900080400002010B52DED2E
:1022F000028BB1EEC08A18EE100A20F00040C0F147
:10230000FF40C00F0AD010EE100A20F00040C0F1CC
:10231000FF40C00F04BF012000F014F8B0EE480ADF
:10232000BDEC028B10BD02E008C8121F08C1002AD4
:10233000FAD170477047002001E001C1121F002A46
:10234000FBD1704701490860704700000800002079
:102350002DE9FF5F82B00021DDE90430020DDDF8D8
:1023600040B0034318D044F61050A2F2FF3242436B
:102370001514119801281FD0A5EB0B00401C5FEA33
:10238000000A4FF000064E4FDFF83891B046504635
:1023900015D5CAF1000413E0119801244AA30128BD
:1023A00001D16FEA0B010298119AC0E90031C0E92E
:1023B000024206B000F08EB8CBF10000DFE7044621
:1023C0000021404A491842EB0450CDE9001012E0C8
:1023D000E00707D032463B4640464946FEF7C3FA7F
:1023E0008046894632463B4610461946FEF7BBFA00
:1023F00006460F466410002CEAD1DDE90401DDE950
:102400000023BAF1000F06DAFEF7ADFA42464B465A
:10241000FEF7A9FA05E0FEF71BFB42464B46FEF726
:1024200017FB04460E460022284BFEF7A5FB03D8F7
:102430004FF0FF30014607E00022254B2046314691
:10244000FEF7E2F9FEF77FFB102409E0002C0ADB1F
:102450000A220023FEF78BF9039B30321A55641EC3
:1024600050EA0102F2D1641C039AC4F1110314442E
:10247000119A012A03D0012208430DD10AE0084332
:1024800004D000204FF0110B119072E7A3EB0B0565
:102490006D1E0DE05B4504DD4FF0000205F1010506
:1024A00004E003DA4FF00002A5F10105002AECD0A8
:1024B00002981199C0E90231C0E9004579E70000AE
:1024C000000014400000F03F300000000000F04326
:1024D0000000E03F30BCBDE8C09F30380A2801D280
:1024E00001207047002070472DE9FF4F95B09B46B3
:1024F0008946064600250FE2252877D10024274685
:10250000F84A0121059400E0044316F8013F203BFE
:1025100001FA03F01042F7D130782A2811D06FF079
:102520002F033078A0F13002092A16D8059A44F01A
:10253000020402EB820203EB42021044761C059077
:10254000EFE759F8042B0592002A03DA504244F4CD
:102550000054059044F00204761C30782E2816D1E1
:1025600016F8010F44F004042A280DD06FF02F0252
:102570003078A0F13003092B09D807EB870302EB71
:102580004303C718761CF3E759F8047B761C3078B0
:102590006C280FD006DC4C2817D068280DD06A288C
:1025A00014D104E0742810D07A280FD10DE044F43F
:1025B00000140AE044F4801401E044F440147278FA
:1025C000824202D104F58014761C761C307866288D
:1025D0000BD013DC582877D009DC002875D04528AB
:1025E000F6D04628F4D047281AD19DE118E0632898
:1025F00035D0642879D0652812D195E1702873D040
:1026000008DC6728F1D069286FD06E280DD06F28BC
:1026100006D1B5E073282CD0752875D0782874D0F1
:102620005A46179990476D1C75E1C4F30250022871
:1026300009D003280DD0D9F8001004280DD00D6062
:1026400009F1040967E1D9F80010EA17C1E900525D
:10265000F6E7D9F800100D80F2E70D70F0E719F8F1
:10266000041B8DF8001000208DF80100EA460120BF
:1026700003E059F804AB4FF0FF3061074FF0000161
:1026800002D40DE008F101018846B9420FDA804515
:10269000F8DB1AF808100029F4D108E008F101016C
:1026A00088468142FADB1AF808100029F6D105980D
:1026B0005B46A0EB080721463846179A00F097FAC8
:1026C000284400EB080507E04DE029E10DE01AF889
:1026D000010B5A4617999047B8F10108F7D25B46AB
:1026E00021463846179A13E142E00A220092C4F3C9
:1026F00002524FF0000A022A08D059F804CB032AEC
:102700004FEAEC710AD00DE029E02AE009F1070157
:1027100021F00702F2E802C1914609E00FFA8CFCB1
:102720004FEAEC71042A03D14FFA8CFC4FEAEC71AA
:10273000002907DA0A460021DCF1000C61EB0201F6
:102740002D2202E0220504D52B228DF8042001223F
:1027500003E0E20701D02022F7E7904659E00A2182
:1027600002E010220DE010214FF0000A00910BE072
:1027700010224FF0000A44F004040827009203E0FE
:1027800008224FF0000A0092C4F30252022A05D038
:1027900059F804CB0021032A08D009E009F1070108
:1027A00021F00702F2E802C1914605E01FFA8CFC15
:1027B000042A01D10CF0FF0C4FF00008220728D5A5
:1027C000702806D0009B83F0100353EA0A0305D05B
:1027D0000EE040228DF80420012208E05CEA0102AC
:1027E00006D030228DF804208DF805000222904694
:1027F000009B83F0080353EA0A030AD15CEA010252
:1028000001D1620705D530228DF804204FF0010870
:102810007F1E582804D034A003900EA802900DE02B
:1028200036A0F9E753466046009AFDF7A0FF8446BC
:102830000398825C0298401E029002705CEA0100DC
:10284000F0D1029806A9081A00F1200A600702D503
:1028500024F4803400E00127574502DDA7EB0A008D
:1028600000E0002000EB0A01009005984144401A66
:102870000590E00306D45B462146179A059800F0C0
:10288000B6F90544002706E001A85A46C05D17992D
:1028900090476D1C7F1C4745F6DBE0030CD55B467B
:1028A0002146179A059800F0A2F9054404E030206B
:1028B0005A46179990476D1C0099481E00900029B0
:1028C000F5DC08E0029802995A460078491C02910A
:1028D000179990476D1CBAF10001AAF1010AF1DCC9
:1028E00065E10000092801003031323334353637D4
:1028F000383961626364656600000000303132334C
:1029000034353637383941424344454600000000EB
:1029100000F05BF90544761C307800287FF4ECADBC
:1029200019B0284600F04EB9620700D4062709F115
:10293000070222F0070CFCE80223E14603F00048FE
:102940005FEA080C02D00FF2702C0DE05FEA045C25
:1029500002D50FF2682C07E05FEAC47C02D00FF2C8
:10296000602C01E0AFF2700C4FF0FF3823F0004311
:10297000CDF850C065280CD006DC452809D0462883
:102980001DD047283DD13DE0662818D067287ED16C
:1029900038E00021112F01DB112000E0781CCDE987
:1029A000000106A90EA8FFF7D3FCDDE90F010E9A7E
:1029B00003910021009207F1010A04914DE04FF0CC
:1029C00000400097CDE9011006A90EA8FFF7C0FC52
:1029D000DDE90F0203920E9B11990022DDF80CA095
:1029E0000093049211B9791C00EB010AB7EB0A00BD
:1029F00004D4C0F1FF3007F1010A0490AAEB0700EC
:102A0000019044E0012F00DA01270021112F01DDA0
:102A1000112000E03846CDE9000106A90EA8FFF715
:102A200097FCDDE90F010E9A0391002104910092B9
:102A3000BA4621070CD40399514500DA8A46BAF107
:102A4000010F05DD009AAAF10101515C302908D07F
:102A5000B84202DA10F1040F06DA0121CDE90110C3
:102A600015E0AAF10101E9E7002805DC0499014419
:102A70000491AAEB000102E0411C514500DD8A46A9
:102A80000499401A401C01904FF00040029020072A
:102A900004D40198504501DBCDF8048000208DF866
:102AA0004F0002980DF14F07B0F1004F25D02B20B9
:102AB0000E9002984FF0020800280CDA4042029073
:102AC0002D200E9007E00A210298FDF73AFE3031E2
:102AD000029007F8011DB8F10001A8F10108F2DC2D
:102AE00002980028EFD1791E0E980870307800F017
:102AF000200040F0450007F8020D12A8C01B00F1AD
:102B000007081498007800B1012000EB0A01019831
:102B100001EBE07105984144401A401E0590E00326
:102B200006D45B462146179A059800F060F80544E4
:102B30001498007818B15A46179990476D1CE00315
:102B400024D55B462146179A059800F050F80544B5
:102B50001CE00498002807DBDDE90301884203DD5F
:102B60000098405C179901E0179930205A46904729
:102B7000049805F10105401C04900198401E019045
:102B800004D12E205A46179990476D1CBAF10001C6
:102B9000AAF1010ADDDC05E017F8010B5A46179986
:102BA00090476D1CB8F10001A8F10108F4DC5B4608
:102BB0002146179A0598ABE62D0000002B00000077
:102BC0002000000030BCBDE8C08F2DE9F041044674
:102BD00000251E461746880404D405E03946202007
:102BE000B0476D1C641EF9D52846BDE8F0812DE97B
:102BF000F041044600251E469046C80301D5302703
:102C000000E02027880404D505E041463846B04757
:102C10006D1C641EF9D52846BDE8F081DDDDDDDDE3
:102C2000DCBBBBDDDDDDDDDDDDDDDDDD988888885D
:102C30008888888877777777778888888555555604
:102C4000666666666666666666688888833333325B
:102C500022222222222222222228888D0000000005
:102C60000400000002000000080000000000000056
:102C7000000000000102030406070809000000002C
:102C800001020304A82C0008000000201800000026
:102C900026230008C02C000818000020401C00005B
:102CA00036230008000000000000000000000000C3
:102CB00000000000000000001000000000093D00BE
:040000050800018D61
:00000001FF
